{
  "contractName": "Escrow",
  "abi": [
    {
      "constant": true,
      "inputs": [],
      "name": "seller",
      "outputs": [
        {
          "name": "",
          "type": "address"
        }
      ],
      "payable": false,
      "stateMutability": "view",
      "type": "function"
    },
    {
      "constant": true,
      "inputs": [],
      "name": "getBalance",
      "outputs": [
        {
          "name": "",
          "type": "uint256"
        }
      ],
      "payable": false,
      "stateMutability": "view",
      "type": "function"
    },
    {
      "constant": false,
      "inputs": [],
      "name": "pay",
      "outputs": [],
      "payable": false,
      "stateMutability": "nonpayable",
      "type": "function"
    },
    {
      "constant": true,
      "inputs": [],
      "name": "endtime",
      "outputs": [
        {
          "name": "",
          "type": "uint256"
        }
      ],
      "payable": false,
      "stateMutability": "view",
      "type": "function"
    },
    {
      "constant": true,
      "inputs": [],
      "name": "value",
      "outputs": [
        {
          "name": "",
          "type": "uint256"
        }
      ],
      "payable": false,
      "stateMutability": "view",
      "type": "function"
    },
    {
      "constant": false,
      "inputs": [],
      "name": "kill",
      "outputs": [],
      "payable": false,
      "stateMutability": "nonpayable",
      "type": "function"
    },
    {
      "constant": false,
      "inputs": [],
      "name": "refund",
      "outputs": [],
      "payable": false,
      "stateMutability": "nonpayable",
      "type": "function"
    },
    {
      "constant": true,
      "inputs": [],
      "name": "buyer",
      "outputs": [
        {
          "name": "",
          "type": "address"
        }
      ],
      "payable": false,
      "stateMutability": "view",
      "type": "function"
    },
    {
      "constant": true,
      "inputs": [],
      "name": "arbiter",
      "outputs": [
        {
          "name": "",
          "type": "address"
        }
      ],
      "payable": false,
      "stateMutability": "view",
      "type": "function"
    },
    {
      "inputs": [
        {
          "name": "_seller",
          "type": "address"
        },
        {
          "name": "_buyer",
          "type": "address"
        },
        {
          "name": "_endtime",
          "type": "uint256"
        }
      ],
      "payable": true,
      "stateMutability": "payable",
      "type": "constructor"
    },
    {
      "anonymous": false,
      "inputs": [
        {
          "indexed": false,
          "name": "_value",
          "type": "uint256"
        },
        {
          "indexed": false,
          "name": "_to",
          "type": "address"
        }
      ],
      "name": "Payout",
      "type": "event"
    },
    {
      "anonymous": false,
      "inputs": [
        {
          "indexed": false,
          "name": "_value",
          "type": "uint256"
        },
        {
          "indexed": false,
          "name": "_to",
          "type": "address"
        }
      ],
      "name": "Refund",
      "type": "event"
    }
  ],
  "bytecode": "0x60606040526040516060806108fc833981016040528080519060200190919080519060200190919080519060200190919050508282600073ffffffffffffffffffffffffffffffffffffffff168273ffffffffffffffffffffffffffffffffffffffff161415801561009e5750600073ffffffffffffffffffffffffffffffffffffffff168173ffffffffffffffffffffffffffffffffffffffff1614155b80156100d657508073ffffffffffffffffffffffffffffffffffffffff168273ffffffffffffffffffffffffffffffffffffffff1614155b15156100e157600080fd5b33600260006101000a81548173ffffffffffffffffffffffffffffffffffffffff021916908373ffffffffffffffffffffffffffffffffffffffff16021790555034600381905550836000806101000a81548173ffffffffffffffffffffffffffffffffffffffff021916908373ffffffffffffffffffffffffffffffffffffffff16021790555084600160006101000a81548173ffffffffffffffffffffffffffffffffffffffff021916908373ffffffffffffffffffffffffffffffffffffffff160217905550826004819055505050505050610737806101c56000396000f300606060405260043610610099576000357c0100000000000000000000000000000000000000000000000000000000900463ffffffff16806308551a531461009e57806312065fe0146100f35780631b9265b81461011c5780632ca126f8146101315780633fa4f2451461015a57806341c0e1b514610183578063590e1ae3146101985780637150d8ae146101ad578063fe25e00a14610202575b600080fd5b34156100a957600080fd5b6100b1610257565b604051808273ffffffffffffffffffffffffffffffffffffffff1673ffffffffffffffffffffffffffffffffffffffff16815260200191505060405180910390f35b34156100fe57600080fd5b61010661027d565b6040518082815260200191505060405180910390f35b341561012757600080fd5b61012f61029c565b005b341561013c57600080fd5b61014461046e565b6040518082815260200191505060405180910390f35b341561016557600080fd5b61016d610474565b6040518082815260200191505060405180910390f35b341561018e57600080fd5b61019661047a565b005b34156101a357600080fd5b6101ab6104ef565b005b34156101b857600080fd5b6101c06106c0565b604051808273ffffffffffffffffffffffffffffffffffffffff1673ffffffffffffffffffffffffffffffffffffffff16815260200191505060405180910390f35b341561020d57600080fd5b6102156106e5565b604051808273ffffffffffffffffffffffffffffffffffffffff1673ffffffffffffffffffffffffffffffffffffffff16815260200191505060405180910390f35b600160009054906101000a900473ffffffffffffffffffffffffffffffffffffffff1681565b60003073ffffffffffffffffffffffffffffffffffffffff1631905090565b6000809054906101000a900473ffffffffffffffffffffffffffffffffffffffff1673ffffffffffffffffffffffffffffffffffffffff163373ffffffffffffffffffffffffffffffffffffffff1614806103445750600260009054906101000a900473ffffffffffffffffffffffffffffffffffffffff1673ffffffffffffffffffffffffffffffffffffffff163373ffffffffffffffffffffffffffffffffffffffff16145b151561034f57600080fd5b7f9b5d1a613fa5f0790b36b13103706e31fca06b229d87e9915b29fc20c1d764903073ffffffffffffffffffffffffffffffffffffffff1631600160009054906101000a900473ffffffffffffffffffffffffffffffffffffffff16604051808381526020018273ffffffffffffffffffffffffffffffffffffffff1673ffffffffffffffffffffffffffffffffffffffff1681526020019250505060405180910390a1600160009054906101000a900473ffffffffffffffffffffffffffffffffffffffff1673ffffffffffffffffffffffffffffffffffffffff166108fc3073ffffffffffffffffffffffffffffffffffffffff16319081150290604051600060405180830381858888f19350505050151561046c57600080fd5b565b60045481565b60035481565b600260009054906101000a900473ffffffffffffffffffffffffffffffffffffffff1673ffffffffffffffffffffffffffffffffffffffff163373ffffffffffffffffffffffffffffffffffffffff161415156104d657600080fd5b3373ffffffffffffffffffffffffffffffffffffffff16ff5b600160009054906101000a900473ffffffffffffffffffffffffffffffffffffffff1673ffffffffffffffffffffffffffffffffffffffff163373ffffffffffffffffffffffffffffffffffffffff1614806105985750600260009054906101000a900473ffffffffffffffffffffffffffffffffffffffff1673ffffffffffffffffffffffffffffffffffffffff163373ffffffffffffffffffffffffffffffffffffffff16145b15156105a357600080fd5b7f510b82fea70ff89a8cc73cd7f29db2d7b480134c160cb52a258797b42d1989ad3073ffffffffffffffffffffffffffffffffffffffff16316000809054906101000a900473ffffffffffffffffffffffffffffffffffffffff16604051808381526020018273ffffffffffffffffffffffffffffffffffffffff1673ffffffffffffffffffffffffffffffffffffffff1681526020019250505060405180910390a16000809054906101000a900473ffffffffffffffffffffffffffffffffffffffff1673ffffffffffffffffffffffffffffffffffffffff166108fc3073ffffffffffffffffffffffffffffffffffffffff16319081150290604051600060405180830381858888f1935050505015156106be57600080fd5b565b6000809054906101000a900473ffffffffffffffffffffffffffffffffffffffff1681565b600260009054906101000a900473ffffffffffffffffffffffffffffffffffffffff16815600a165627a7a7230582011d03c80d5dbc050e1a1b36820d21a47a2318ba1d0b75ed12333718d9526c2780029",
  "source": "/*\n Bitsign escrow contract v0.1\n*/\npragma solidity ^0.4.15;\n\n\ncontract Escrow {\n  //State variables\n  address public buyer;\n  address public seller;\n  address public arbiter;\n  uint public value;\n  uint public endtime;\n  //Events\n  event Payout(uint _value, address _to);\n  event Refund(uint _value, address _to);\n\n  modifier validateParams (address _seller, address _buyer) {\n    require (_seller != address(0) && _buyer != address(0) && _seller != _buyer);\n    _;\n  }\n\n  modifier isBuyerOrArbiter () {\n    require (msg.sender == buyer || msg.sender == arbiter);\n    _;\n  }\n\n  modifier isSellerOrArbiter () {\n    require (msg.sender == seller || msg.sender == arbiter);\n    _;\n  }\n\n\n  modifier isArbiter () {\n    require (msg.sender == arbiter);\n    _;\n  }\n\n  /**\n    TODO: doc\n   */\n  function Escrow (address _seller, address _buyer, uint _endtime) public payable validateParams (_seller, _buyer) {\n    arbiter = msg.sender;\n    value = msg.value;\n    buyer = _buyer;\n    seller = _seller;\n    endtime = _endtime;\n  }\n\n  /**\n    TODO: Si las condiciones del contrato se cumplen, el arbiter o comprador puede ejecutar\n    esta función para pagar al vendedor.\n   */\n  function pay() external isBuyerOrArbiter() {\n    Payout(this.balance, seller);\n    seller.transfer(this.balance);\n  }\n\n  /**\n    TODO: Si las condiciones no se cumplen por algún motivo, se ejecuta\n    esta función para devolver al comprador los fondos.\n   */\n  function refund() external isSellerOrArbiter() {\n    Refund(this.balance, buyer);\n    buyer.transfer(this.balance);\n  }\n\n  /**\n    TODO: Devuelve el balance depositando en el contrato\n  */\n  function getBalance() external constant returns (uint) {\n    return this.balance;\n  }\n\n  /**\n    TODO: doc\n  */\n  function kill() public isArbiter() {\n    selfdestruct(msg.sender);\n  }\n}\n",
  "sourcePath": "/home/af/projects/bitsign-federation/contracts/Escrow.sol",
  "compiler": {
    "name": "solc",
    "version": "0.4.18+commit.9cf6e910.Emscripten.clang"
  },
  "schemaVersion": "1.0.1",
  "updatedAt": "2017-12-21T20:59:26.863Z"
}