{
  "contractName": "Notarize",
  "abi": [
    {
      "constant": true,
      "inputs": [
        {
          "name": "_data",
          "type": "bytes32"
        }
      ],
      "name": "getProof",
      "outputs": [
        {
          "name": "",
          "type": "address"
        }
      ],
      "payable": false,
      "stateMutability": "view",
      "type": "function"
    },
    {
      "constant": false,
      "inputs": [
        {
          "name": "_data",
          "type": "bytes32"
        }
      ],
      "name": "notarize",
      "outputs": [],
      "payable": false,
      "stateMutability": "nonpayable",
      "type": "function"
    },
    {
      "inputs": [
        {
          "name": "_user",
          "type": "address"
        }
      ],
      "payable": false,
      "stateMutability": "nonpayable",
      "type": "constructor"
    },
    {
      "anonymous": false,
      "inputs": [
        {
          "indexed": false,
          "name": "_data",
          "type": "bytes32"
        },
        {
          "indexed": false,
          "name": "_address",
          "type": "address"
        }
      ],
      "name": "Notary",
      "type": "event"
    }
  ],
  "bytecode": "0x6060604052341561000f57600080fd5b6040516020806103918339810160405280805190602001909190505033600260006101000a81548173ffffffffffffffffffffffffffffffffffffffff021916908373ffffffffffffffffffffffffffffffffffffffff16021790555080600160006101000a81548173ffffffffffffffffffffffffffffffffffffffff021916908373ffffffffffffffffffffffffffffffffffffffff160217905550506102d4806100bd6000396000f30060606040526004361061004c576000357c0100000000000000000000000000000000000000000000000000000000900463ffffffff1680631b80bb3a14610051578063cbef362f146100b8575b600080fd5b341561005c57600080fd5b6100766004808035600019169060200190919050506100df565b604051808273ffffffffffffffffffffffffffffffffffffffff1673ffffffffffffffffffffffffffffffffffffffff16815260200191505060405180910390f35b34156100c357600080fd5b6100dd600480803560001916906020019091905050610123565b005b6000806000836000191660001916815260200190815260200160002060009054906101000a900473ffffffffffffffffffffffffffffffffffffffff169050919050565b600160009054906101000a900473ffffffffffffffffffffffffffffffffffffffff1673ffffffffffffffffffffffffffffffffffffffff163373ffffffffffffffffffffffffffffffffffffffff16141580156101cf5750600260009054906101000a900473ffffffffffffffffffffffffffffffffffffffff1673ffffffffffffffffffffffffffffffffffffffff163373ffffffffffffffffffffffffffffffffffffffff1614155b156101d957600080fd5b33600080836000191660001916815260200190815260200160002060006101000a81548173ffffffffffffffffffffffffffffffffffffffff021916908373ffffffffffffffffffffffffffffffffffffffff1602179055507f8dbf688db5c79fe10fee0cf2f31d8bc8fbe532066562899c198aa744173011f681336040518083600019166000191681526020018273ffffffffffffffffffffffffffffffffffffffff1673ffffffffffffffffffffffffffffffffffffffff1681526020019250505060405180910390a1505600a165627a7a723058200a22e43dbcf4636d4f211e255b01235c1c52448210de890b359e2921939b37900029",
  "source": "/*\n Bitsign generic notarizacion contract v0.1f\n*/\npragma solidity ^0.4.15;\n\n\ncontract Notarize {\n  //State variables\n  mapping (bytes32 => address) private proofs;\n  address private owner;\n  address private BSG;\n\n  event Notary(bytes32 _data, address _address);\n\n  /*\n    Contract constructor takes _user as client Ethereum address\n   */\n  function Notarize(address _user) public {\n    BSG = msg.sender;\n    owner = _user;\n  }\n\n  /* @params\n    _data data to sign\n   */\n  function notarize(bytes32 _data) external {\n    if (msg.sender != owner && msg.sender != BSG)\n      revert();\n    proofs[_data] = msg.sender;\n    Notary(_data, msg.sender);\n  }\n\n  function getProof(bytes32 _data) constant public returns (address) {\n    return proofs[_data];\n  }\n}\n",
  "sourcePath": "/home/af/projects/bitsign-federation/contracts/Notarize.sol",
  "compiler": {
    "name": "solc",
    "version": "0.4.18+commit.9cf6e910.Emscripten.clang"
  },
  "schemaVersion": "1.0.1",
  "updatedAt": "2017-12-21T20:59:26.863Z"
}