{
  "contractName": "NotarizeTx",
  "abi": [
    {
      "constant": true,
      "inputs": [],
      "name": "BSG_NODE",
      "outputs": [
        {
          "name": "",
          "type": "address"
        }
      ],
      "payable": false,
      "stateMutability": "view",
      "type": "function"
    },
    {
      "constant": false,
      "inputs": [
        {
          "name": "_shipping",
          "type": "string"
        },
        {
          "name": "_hash",
          "type": "bytes32"
        },
        {
          "name": "_id",
          "type": "bytes32"
        }
      ],
      "name": "updateShipping",
      "outputs": [],
      "payable": false,
      "stateMutability": "nonpayable",
      "type": "function"
    },
    {
      "constant": false,
      "inputs": [
        {
          "name": "_status",
          "type": "string"
        },
        {
          "name": "_hash",
          "type": "bytes32"
        },
        {
          "name": "_id",
          "type": "bytes32"
        }
      ],
      "name": "updateStatus",
      "outputs": [],
      "payable": false,
      "stateMutability": "nonpayable",
      "type": "function"
    },
    {
      "inputs": [
        {
          "name": "_buyer",
          "type": "address"
        },
        {
          "name": "_seller",
          "type": "address"
        },
        {
          "name": "_id",
          "type": "bytes32"
        },
        {
          "name": "_date",
          "type": "string"
        },
        {
          "name": "_value",
          "type": "uint256"
        },
        {
          "name": "_hash",
          "type": "bytes32"
        },
        {
          "name": "_status",
          "type": "string"
        },
        {
          "name": "_shipping",
          "type": "string"
        }
      ],
      "payable": false,
      "stateMutability": "nonpayable",
      "type": "constructor"
    },
    {
      "anonymous": false,
      "inputs": [
        {
          "indexed": false,
          "name": "_hash",
          "type": "bytes32"
        },
        {
          "indexed": false,
          "name": "_id",
          "type": "bytes32"
        }
      ],
      "name": "NotaryEvt",
      "type": "event"
    }
  ],
  "bytecode": "0x6060604052341561000f57600080fd5b6040516108143803806108148339810160405280805190602001909190805190602001909190805190602001909190805182019190602001805190602001909190805190602001909190805182019190602001805182019190505087600260000160006101000a81548173ffffffffffffffffffffffffffffffffffffffff021916908373ffffffffffffffffffffffffffffffffffffffff16021790555086600260010160006101000a81548173ffffffffffffffffffffffffffffffffffffffff021916908373ffffffffffffffffffffffffffffffffffffffff1602179055508560028001816000191690555084600260030190805190602001906101189291906101d6565b50836002600401819055508260026005018160001916905550816002600601908051906020019061014a9291906101d6565b5080600260070190805190602001906101649291906101d6565b50856000808560001916600019168152602001908152602001600020816000191690555033600160006101000a81548173ffffffffffffffffffffffffffffffffffffffff021916908373ffffffffffffffffffffffffffffffffffffffff160217905550505050505050505061027b565b828054600181600116156101000203166002900490600052602060002090601f016020900481019282601f1061021757805160ff1916838001178555610245565b82800160010185558215610245579182015b82811115610244578251825591602001919060010190610229565b5b5090506102529190610256565b5090565b61027891905b8082111561027457600081600090555060010161025c565b5090565b90565b61058a8061028a6000396000f300606060405260043610610057576000357c0100000000000000000000000000000000000000000000000000000000900463ffffffff1680631781dbd81461005c578063a2d58fdd146100b1578063ecfa1bca14610128575b600080fd5b341561006757600080fd5b61006f61019f565b604051808273ffffffffffffffffffffffffffffffffffffffff1673ffffffffffffffffffffffffffffffffffffffff16815260200191505060405180910390f35b34156100bc57600080fd5b610126600480803590602001908201803590602001908080601f0160208091040260200160405190810160405280939291908181526020018383808284378201915050505050509190803560001916906020019091908035600019169060200190919050506101c5565b005b341561013357600080fd5b61019d600480803590602001908201803590602001908080601f016020809104026020016040519081016040528093929190818152602001838380828437820191505050505050919080356000191690602001909190803560001916906020019091905050610341565b005b600160009054906101000a900473ffffffffffffffffffffffffffffffffffffffff1681565b60028001546000191681600019161415156101df57600080fd5b600260000160009054906101000a900473ffffffffffffffffffffffffffffffffffffffff1673ffffffffffffffffffffffffffffffffffffffff163373ffffffffffffffffffffffffffffffffffffffff16148061028b5750600160009054906101000a900473ffffffffffffffffffffffffffffffffffffffff1673ffffffffffffffffffffffffffffffffffffffff163373ffffffffffffffffffffffffffffffffffffffff16145b156103375782600260060190805190602001906102a99291906104b9565b5081600260050181600019169055506002800154600080846000191660001916815260200190815260200160002081600019169055507fe5d5bf8ea78ec03a3dcd460fddcbafc825fc5998cdcc276cbf12186399228bbe82600280015460405180836000191660001916815260200182600019166000191681526020019250505060405180910390a161033c565b600080fd5b505050565b600280015460001916816000191614151561035b57600080fd5b600260000160009054906101000a900473ffffffffffffffffffffffffffffffffffffffff1673ffffffffffffffffffffffffffffffffffffffff163373ffffffffffffffffffffffffffffffffffffffff1614806104075750600160009054906101000a900473ffffffffffffffffffffffffffffffffffffffff1673ffffffffffffffffffffffffffffffffffffffff163373ffffffffffffffffffffffffffffffffffffffff16145b156104af5782600260060190805190602001906104259291906104b9565b50816002600501816000191690555080600080846000191660001916815260200190815260200160002081600019169055507fe5d5bf8ea78ec03a3dcd460fddcbafc825fc5998cdcc276cbf12186399228bbe82600280015460405180836000191660001916815260200182600019166000191681526020019250505060405180910390a16104b4565b600080fd5b505050565b828054600181600116156101000203166002900490600052602060002090601f016020900481019282601f106104fa57805160ff1916838001178555610528565b82800160010185558215610528579182015b8281111561052757825182559160200191906001019061050c565b5b5090506105359190610539565b5090565b61055b91905b8082111561055757600081600090555060010161053f565b5090565b905600a165627a7a7230582065c7189ffe992c96827f6f92b39b302fc2d32f03f877c15813391796c0070e050029",
  "source": "/*\n Bitsign transaction notarizacion contract v0.1c\n*/\npragma solidity ^0.4.15;\n\ncontract NotarizeTx {\n\n  //State variables\n  mapping (bytes32 => bytes32) private proofs;\n  address public BSG_NODE;\n  struct Tx {\n    address buyer;\n    address seller;\n    bytes32 id;\n    string date;\n    uint value;\n    bytes32 hash;\n    string status;\n    string shipping;\n  }\n\n  Tx _tx;\n  event NotaryEvt(bytes32 _hash, bytes32 _id);\n\n  /*\n    Contract constructor takes _user as client Ethereum address\n   */\n  function NotarizeTx(address _buyer, address _seller, bytes32 _id, string _date, uint _value, bytes32 _hash, string _status, string _shipping) public {\n    _tx.buyer = _buyer;\n    _tx.seller = _seller;\n    _tx.id = _id;\n    _tx.date = _date;\n    _tx.value = _value;\n    _tx.hash = _hash;\n    _tx.status = _status;\n    _tx.shipping = _shipping;\n    proofs[_hash] = _id;\n    BSG_NODE = msg.sender;\n  }\n  /**\n  *\n  *\n   */\n  function updateStatus(string _status, bytes32 _hash, bytes32 _id) public {\n    if (_id != _tx.id)\n      revert();\n\n    if (msg.sender == _tx.buyer || msg.sender == BSG_NODE) {\n      _tx.status = _status;\n      _tx.hash = _hash;\n      proofs[_hash] = _id;\n      NotaryEvt(_hash, _tx.id);\n    } else {\n      revert();\n    }\n  }\n  /**\n  *\n   */\n  function updateShipping(string _shipping, bytes32 _hash, bytes32 _id) public {\n    if (_id != _tx.id)\n      revert();\n\n    if (msg.sender == _tx.buyer || msg.sender == BSG_NODE) {\n      _tx.status = _shipping;\n      _tx.hash = _hash;\n      proofs[_hash] = _tx.id;\n      NotaryEvt(_hash, _tx.id);\n    } else {\n      revert();\n    }\n  }\n}\n",
  "sourcePath": "/home/af/projects/bitsign-federation/contracts/Notarizetx.sol",
  "compiler": {
    "name": "solc",
    "version": "0.4.18+commit.9cf6e910.Emscripten.clang"
  },
  "schemaVersion": "1.0.1",
  "updatedAt": "2017-12-21T20:59:26.863Z"
}