{
  "contractName": "Validator",
  "abi": [
    {
      "constant": false,
      "inputs": [
        {
          "name": "validator",
          "type": "address"
        }
      ],
      "name": "removeValidator",
      "outputs": [],
      "payable": false,
      "stateMutability": "nonpayable",
      "type": "function"
    },
    {
      "constant": false,
      "inputs": [
        {
          "name": "newValidator",
          "type": "address"
        }
      ],
      "name": "addValidator",
      "outputs": [],
      "payable": false,
      "stateMutability": "nonpayable",
      "type": "function"
    },
    {
      "constant": false,
      "inputs": [],
      "name": "finalizeChange",
      "outputs": [],
      "payable": false,
      "stateMutability": "nonpayable",
      "type": "function"
    },
    {
      "constant": true,
      "inputs": [],
      "name": "getValidators",
      "outputs": [
        {
          "name": "",
          "type": "address[]"
        }
      ],
      "payable": false,
      "stateMutability": "view",
      "type": "function"
    },
    {
      "inputs": [],
      "payable": false,
      "stateMutability": "nonpayable",
      "type": "constructor"
    },
    {
      "anonymous": false,
      "inputs": [
        {
          "indexed": true,
          "name": "_parent_hash",
          "type": "bytes32"
        },
        {
          "indexed": false,
          "name": "_new_set",
          "type": "address[]"
        }
      ],
      "name": "InitiateChange",
      "type": "event"
    },
    {
      "anonymous": false,
      "inputs": [
        {
          "indexed": false,
          "name": "current_set",
          "type": "address[]"
        }
      ],
      "name": "ChangeFinalized",
      "type": "event"
    }
  ],
  "bytecode": "0x6060604052602060405190810160405280730a0f29a9b479d91f6d112b203c7d9db0cb4cdb8473ffffffffffffffffffffffffffffffffffffffff1673ffffffffffffffffffffffffffffffffffffffff1681525060019060016100649291906100a3565b506001600260006101000a81548160ff021916908315150217905550341561008b57600080fd5b6001600090805461009d92919061012d565b506101c2565b82805482825590600052602060002090810192821561011c579160200282015b8281111561011b5782518260006101000a81548173ffffffffffffffffffffffffffffffffffffffff021916908373ffffffffffffffffffffffffffffffffffffffff160217905550916020019190600101906100c3565b5b509050610129919061017f565b5090565b82805482825590600052602060002090810192821561016e5760005260206000209182015b8281111561016d578254825591600101919060010190610152565b5b50905061017b919061017f565b5090565b6101bf91905b808211156101bb57600081816101000a81549073ffffffffffffffffffffffffffffffffffffffff021916905550600101610185565b5090565b90565b61073c806101d16000396000f300606060405260043610610062576000357c0100000000000000000000000000000000000000000000000000000000900463ffffffff16806340a141ff146100675780634d238c8e146100a057806375286211146100d9578063b7ab4db5146100ee575b600080fd5b341561007257600080fd5b61009e600480803573ffffffffffffffffffffffffffffffffffffffff16906020019091905050610158565b005b34156100ab57600080fd5b6100d7600480803573ffffffffffffffffffffffffffffffffffffffff1690602001909190505061031f565b005b34156100e457600080fd5b6100ec6103a8565b005b34156100f957600080fd5b610101610484565b6040518080602001828103825283818151815260200191508051906020019060200280838360005b83811015610144578082015181840152602081019050610129565b505050509050019250505060405180910390f35b600080600260009054906101000a900460ff16151561017657600080fd5b600091505b60018054905082101561031a578273ffffffffffffffffffffffffffffffffffffffff166001838154811015156101ae57fe5b906000526020600020900160009054906101000a900473ffffffffffffffffffffffffffffffffffffffff1673ffffffffffffffffffffffffffffffffffffffff16141561030d578190505b60018080549050038110156102ab57600180820181548110151561021a57fe5b906000526020600020900160009054906101000a900473ffffffffffffffffffffffffffffffffffffffff1660018281548110151561025557fe5b906000526020600020900160006101000a81548173ffffffffffffffffffffffffffffffffffffffff021916908373ffffffffffffffffffffffffffffffffffffffff16021790555080806001019150506101fa565b6001808080549050038154811015156102c057fe5b906000526020600020900160006101000a81549073ffffffffffffffffffffffffffffffffffffffff0219169055600180548091906001900361030391906105ea565b5061030c610518565b5b818060010192505061017b565b505050565b600260009054906101000a900460ff16151561033a57600080fd5b6001805480600101828161034e9190610616565b9160005260206000209001600083909190916101000a81548173ffffffffffffffffffffffffffffffffffffffff021916908373ffffffffffffffffffffffffffffffffffffffff160217905550506103a5610518565b50565b600160009080546103ba929190610642565b506001600260006101000a81548160ff0219169083151502179055507f8564cd629b15f47dc310d45bcbfc9bcf5420b0d51bf0659a16c67f91d276325360006040518080602001828103825283818154815260200191508054801561047457602002820191906000526020600020905b8160009054906101000a900473ffffffffffffffffffffffffffffffffffffffff1673ffffffffffffffffffffffffffffffffffffffff168152602001906001019080831161042a575b50509250505060405180910390a1565b61048c610694565b600080548060200260200160405190810160405280929190818152602001828054801561050e57602002820191906000526020600020905b8160009054906101000a900473ffffffffffffffffffffffffffffffffffffffff1673ffffffffffffffffffffffffffffffffffffffff16815260200190600101908083116104c4575b5050505050905090565b6000600260006101000a81548160ff0219169083151502179055506001430340600019167f55252fa6eee4741b4e24a74a70e9c11fd2c2281df8d6ea13126ff845f7825c896001604051808060200182810382528381815481526020019150805480156105da57602002820191906000526020600020905b8160009054906101000a900473ffffffffffffffffffffffffffffffffffffffff1673ffffffffffffffffffffffffffffffffffffffff1681526020019060010190808311610590575b50509250505060405180910390a2565b8154818355818115116106115781836000526020600020918201910161061091906106a8565b5b505050565b81548183558181151161063d5781836000526020600020918201910161063c91906106a8565b5b505050565b8280548282559060005260206000209081019282156106835760005260206000209182015b82811115610682578254825591600101919060010190610667565b5b50905061069091906106cd565b5090565b602060405190810160405280600081525090565b6106ca91905b808211156106c65760008160009055506001016106ae565b5090565b90565b61070d91905b8082111561070957600081816101000a81549073ffffffffffffffffffffffffffffffffffffffff0219169055506001016106d3565b5090565b905600a165627a7a72305820aad5b911ff421d28c518846840dc1b3ce870f77615568dba24632cf60411376c0029",
  "source": "pragma solidity ^0.4.13;\n\ncontract Validator {\n  address[] private _validatorArr;\n\taddress[] private _pendingArr = [0x0a0F29a9B479d91F6D112B203C7D9dB0cb4CDb84];\n\tbool private _finalized = true;\n\n  event InitiateChange(bytes32 indexed _parent_hash, address[] _new_set);\n  event ChangeFinalized(address[] current_set);\n\n  modifier finalized {\n    require(_finalized);\n    _;\n  }\n\n\tfunction Validator() public {\n\t\t_validatorArr = _pendingArr;\n\t}\n\n\t// Called on every block to update node validator list.\n  function getValidators() public constant returns (address[]) {\n\t\treturn _validatorArr;\n\t}\n\n\t// Expand the list of validators.\n\tfunction addValidator(address newValidator) public finalized {\n    _pendingArr.push(newValidator);\n    initiateChange();\n  }\n\n\t// Remove a validator from the list.\n  function removeValidator(address validator) public finalized {\n    for (uint i = 0; i < _pendingArr.length; i++) {\n      if (_pendingArr[i] == validator) {\n        for (uint j = i; j < _pendingArr.length - 1; j++) {\n            _pendingArr[j] = _pendingArr[j + 1];\n        }\n        delete _pendingArr[_pendingArr.length - 1];\n        _pendingArr.length--;\n        initiateChange();\n      }\n    }\n  }\n\n  function initiateChange() private {\n\t\t_finalized = false;\n    InitiateChange(block.blockhash(block.number - 1), _pendingArr);\n  }\n\n\tfunction finalizeChange() public {\n    _validatorArr = _pendingArr;\n    _finalized = true;\n    ChangeFinalized(_validatorArr);\n  }\n}\n",
  "sourcePath": "/home/af/projects/bitsign-federation/contracts/validator.sol",
  "compiler": {
    "name": "solc",
    "version": "0.4.18+commit.9cf6e910.Emscripten.clang"
  },
  "schemaVersion": "1.0.1",
  "updatedAt": "2017-12-21T20:59:26.864Z"
}